{"abi":[{"type":"fallback","stateMutability":"payable"},{"type":"receive","stateMutability":"payable"},{"type":"function","name":"execute","inputs":[{"name":"calls","type":"tuple[]","internalType":"struct BatchCallAndSponsor.Call[]","components":[{"name":"to","type":"address","internalType":"address"},{"name":"value","type":"uint256","internalType":"uint256"},{"name":"data","type":"bytes","internalType":"bytes"}]}],"outputs":[],"stateMutability":"payable"},{"type":"function","name":"execute","inputs":[{"name":"calls","type":"tuple[]","internalType":"struct BatchCallAndSponsor.Call[]","components":[{"name":"to","type":"address","internalType":"address"},{"name":"value","type":"uint256","internalType":"uint256"},{"name":"data","type":"bytes","internalType":"bytes"}]},{"name":"signature","type":"bytes","internalType":"bytes"}],"outputs":[],"stateMutability":"payable"},{"type":"function","name":"nonce","inputs":[],"outputs":[{"name":"","type":"uint256","internalType":"uint256"}],"stateMutability":"view"},{"type":"event","name":"BatchExecuted","inputs":[{"name":"nonce","type":"uint256","indexed":true,"internalType":"uint256"},{"name":"calls","type":"tuple[]","indexed":false,"internalType":"struct BatchCallAndSponsor.Call[]","components":[{"name":"to","type":"address","internalType":"address"},{"name":"value","type":"uint256","internalType":"uint256"},{"name":"data","type":"bytes","internalType":"bytes"}]}],"anonymous":false},{"type":"event","name":"CallExecuted","inputs":[{"name":"sender","type":"address","indexed":true,"internalType":"address"},{"name":"to","type":"address","indexed":true,"internalType":"address"},{"name":"value","type":"uint256","indexed":false,"internalType":"uint256"},{"name":"data","type":"bytes","indexed":false,"internalType":"bytes"}],"anonymous":false},{"type":"error","name":"ECDSAInvalidSignature","inputs":[]},{"type":"error","name":"ECDSAInvalidSignatureLength","inputs":[{"name":"length","type":"uint256","internalType":"uint256"}]},{"type":"error","name":"ECDSAInvalidSignatureS","inputs":[{"name":"s","type":"bytes32","internalType":"bytes32"}]}],"bytecode":{"object":"0x608060405234801561000f575f80fd5b50610a4f8061001d5f395ff3fe608060405260043610610034575f3560e01c80633f707e6b1461003d5780636171d1c914610050578063affed0e01461006357005b3661003b57005b005b61003b61004b3660046106ab565b610089565b61003b61005e3660046106ea565b6100df565b34801561006e575f80fd5b506100775f5481565b60405190815260200160405180910390f35b3330146100d15760405162461bcd60e51b8152602060048201526011602482015270496e76616c696420617574686f7269747960781b60448201526064015b60405180910390fd5b6100db82826102b9565b5050565b60605f5b848110156101b057818686838181106100fe576100fe610779565b9050602002810190610110919061078d565b61011e9060208101906107c6565b87878481811061013057610130610779565b9050602002810190610142919061078d565b6020013588888581811061015857610158610779565b905060200281019061016a919061078d565b6101789060408101906107e6565b60405160200161018c959493929190610856565b604051602081830303815290604052915080806101a890610897565b9150506100e3565b505f8054826040516020016101c69291906108bb565b6040516020818303038152906040528051906020012090505f610215827f19457468657265756d205369676e6564204d6573736167653a0a3332000000005f908152601c91909152603c902090565b90505f6102578287878080601f0160208091040260200160405190810160405280939291908181526020018383808284375f9201919091525061035692505050565b90506001600160a01b03811630146102a55760405162461bcd60e51b8152602060048201526011602482015270496e76616c6964207369676e617475726560781b60448201526064016100c8565b6102af88886102b9565b5050505050505050565b5f8054908190806102c983610897565b91905055505f5b82811015610316576103048484838181106102ed576102ed610779565b90506020028101906102ff919061078d565b61037e565b8061030e81610897565b9150506102d0565b50807f280bb3599696acbf79fb8ffcde81a57337b52500f789600fbb1cff9b4cbaba3984846040516103499291906108fc565b60405180910390a2505050565b5f805f80610364868661049a565b92509250925061037482826104e3565b5090949350505050565b5f61038c60208301836107c6565b6001600160a01b031660208301356103a760408501856107e6565b6040516103b59291906109d4565b5f6040518083038185875af1925050503d805f81146103ef576040519150601f19603f3d011682016040523d82523d5f602084013e6103f4565b606091505b50509050806104355760405162461bcd60e51b815260206004820152600d60248201526c10d85b1b081c995d995c9d1959609a1b60448201526064016100c8565b61044260208301836107c6565b6001600160a01b0316337fed7e8f919df9cc0d0ad8b4057d084ebf319b630564d5da283e14751adc931f3a602085013561047f60408701876107e6565b60405161048e939291906109e3565b60405180910390a35050565b5f805f83516041036104d1576020840151604085015160608601515f1a6104c38882858561059b565b9550955095505050506104dc565b505081515f91506002905b9250925092565b5f8260038111156104f6576104f6610a05565b036104ff575050565b600182600381111561051357610513610a05565b036105315760405163f645eedf60e01b815260040160405180910390fd5b600282600381111561054557610545610a05565b036105665760405163fce698f760e01b8152600481018290526024016100c8565b600382600381111561057a5761057a610a05565b036100db576040516335e2f38360e21b8152600481018290526024016100c8565b5f80807f7fffffffffffffffffffffffffffffff5d576e7357a4501ddfe92f46681b20a08411156105d457505f91506003905082610659565b604080515f808252602082018084528a905260ff891692820192909252606081018790526080810186905260019060a0016020604051602081039080840390855afa158015610625573d5f803e3d5ffd5b5050604051601f1901519150506001600160a01b03811661065057505f925060019150829050610659565b92505f91508190505b9450945094915050565b5f8083601f840112610673575f80fd5b50813567ffffffffffffffff81111561068a575f80fd5b6020830191508360208260051b85010111156106a4575f80fd5b9250929050565b5f80602083850312156106bc575f80fd5b823567ffffffffffffffff8111156106d2575f80fd5b6106de85828601610663565b90969095509350505050565b5f805f80604085870312156106fd575f80fd5b843567ffffffffffffffff80821115610714575f80fd5b61072088838901610663565b90965094506020870135915080821115610738575f80fd5b818701915087601f83011261074b575f80fd5b813581811115610759575f80fd5b88602082850101111561076a575f80fd5b95989497505060200194505050565b634e487b7160e01b5f52603260045260245ffd5b5f8235605e198336030181126107a1575f80fd5b9190910192915050565b80356001600160a01b03811681146107c1575f80fd5b919050565b5f602082840312156107d6575f80fd5b6107df826107ab565b9392505050565b5f808335601e198436030181126107fb575f80fd5b83018035915067ffffffffffffffff821115610815575f80fd5b6020019150368190038213156106a4575f80fd5b5f81515f5b81811015610848576020818501810151868301520161082e565b505f93019283525090919050565b5f6108618288610829565b6bffffffffffffffffffffffff198760601b168152856014820152838560348301375f9301603401928352509095945050505050565b5f600182016108b457634e487b7160e01b5f52601160045260245ffd5b5060010190565b8281525f6108cc6020830184610829565b949350505050565b81835281816020850137505f828201602090810191909152601f909101601f19169091010190565b60208082528181018390525f906040808401600586901b8501820187855b888110156109c657878303603f190184528135368b9003605e1901811261093f575f80fd5b8a0160606001600160a01b03610954836107ab565b168552878201358886015286820135601e19833603018112610974575f80fd5b90910187810191903567ffffffffffffffff811115610991575f80fd5b80360383131561099f575f80fd5b81888701526109b182870182856108d4565b9689019695505050918601915060010161091a565b509098975050505050505050565b818382375f9101908152919050565b838152604060208201525f6109fc6040830184866108d4565b95945050505050565b634e487b7160e01b5f52602160045260245ffdfea26469706673582212200900c150257fc70c4a1ef7611dde1be098e8a3c0d02b18bc56c5fefab47fa1fe64736f6c63430008140033","linkReferences":{}},"methodIdentifiers":{"execute((address,uint256,bytes)[])":"3f707e6b","execute((address,uint256,bytes)[],bytes)":"6171d1c9","nonce()":"affed0e0"},"id":0}