{"abi":[{"type":"fallback","stateMutability":"payable"},{"type":"receive","stateMutability":"payable"},{"type":"function","name":"setValue","inputs":[{"name":"_value","type":"uint256","internalType":"uint256"}],"outputs":[],"stateMutability":"nonpayable"},{"type":"function","name":"value","inputs":[],"outputs":[{"name":"","type":"uint256","internalType":"uint256"}],"stateMutability":"view"}],"bytecode":{"object":"0x608060405234801561000f575f80fd5b5060b88061001c5f395ff3fe6080604052600436106026575f3560e01c80633fa4f24514602e5780635524107714605257005b36602c57005b005b3480156038575f80fd5b5060405f5481565b60405190815260200160405180910390f35b348015605c575f80fd5b50602c6068366004606c565b5f55565b5f60208284031215607b575f80fd5b503591905056fea2646970667358221220a1d826a4d8f0924a9ec9748e963d41fc4166a9d2227a16db58d615f5d0c61c1264736f6c63430008140033","linkReferences":{}},"methodIdentifiers":{"setValue(uint256)":"55241077","value()":"3fa4f245"},"id":0}